{
  "contractName": "Lottery",
  "abi": [
    {
      "inputs": [
        {
          "internalType": "address",
          "name": "ethUsdPriceFeedAddress",
          "type": "address"
        },
        {
          "internalType": "address",
          "name": "_vrfCoordinator",
          "type": "address"
        },
        {
          "internalType": "address",
          "name": "_link",
          "type": "address"
        },
        {
          "internalType": "bytes32",
          "name": "_keyHash",
          "type": "bytes32"
        }
      ],
      "stateMutability": "nonpayable",
      "type": "constructor"
    },
    {
      "anonymous": false,
      "inputs": [
        {
          "indexed": true,
          "internalType": "address",
          "name": "previousOwner",
          "type": "address"
        },
        {
          "indexed": true,
          "internalType": "address",
          "name": "newOwner",
          "type": "address"
        }
      ],
      "name": "OwnershipTransferred",
      "type": "event"
    },
    {
      "anonymous": false,
      "inputs": [
        {
          "indexed": false,
          "internalType": "bytes32",
          "name": "requestId",
          "type": "bytes32"
        }
      ],
      "name": "RequestedRandomness",
      "type": "event"
    },
    {
      "inputs": [],
      "name": "fee",
      "outputs": [
        {
          "internalType": "uint256",
          "name": "",
          "type": "uint256"
        }
      ],
      "stateMutability": "view",
      "type": "function",
      "constant": true
    },
    {
      "inputs": [],
      "name": "keyHash",
      "outputs": [
        {
          "internalType": "bytes32",
          "name": "",
          "type": "bytes32"
        }
      ],
      "stateMutability": "view",
      "type": "function",
      "constant": true
    },
    {
      "inputs": [],
      "name": "lotteryId",
      "outputs": [
        {
          "internalType": "uint256",
          "name": "",
          "type": "uint256"
        }
      ],
      "stateMutability": "view",
      "type": "function",
      "constant": true
    },
    {
      "inputs": [],
      "name": "lottery_state",
      "outputs": [
        {
          "internalType": "enum Lottery.LOTTERY_STATE",
          "name": "",
          "type": "uint8"
        }
      ],
      "stateMutability": "view",
      "type": "function",
      "constant": true
    },
    {
      "inputs": [],
      "name": "owner",
      "outputs": [
        {
          "internalType": "address",
          "name": "",
          "type": "address"
        }
      ],
      "stateMutability": "view",
      "type": "function",
      "constant": true
    },
    {
      "inputs": [
        {
          "internalType": "uint256",
          "name": "",
          "type": "uint256"
        }
      ],
      "name": "players",
      "outputs": [
        {
          "internalType": "address payable",
          "name": "",
          "type": "address"
        }
      ],
      "stateMutability": "view",
      "type": "function",
      "constant": true
    },
    {
      "inputs": [],
      "name": "randomness",
      "outputs": [
        {
          "internalType": "uint256",
          "name": "",
          "type": "uint256"
        }
      ],
      "stateMutability": "view",
      "type": "function",
      "constant": true
    },
    {
      "inputs": [
        {
          "internalType": "bytes32",
          "name": "requestId",
          "type": "bytes32"
        },
        {
          "internalType": "uint256",
          "name": "randomness",
          "type": "uint256"
        }
      ],
      "name": "rawFulfillRandomness",
      "outputs": [],
      "stateMutability": "nonpayable",
      "type": "function"
    },
    {
      "inputs": [],
      "name": "recentWinner",
      "outputs": [
        {
          "internalType": "address",
          "name": "",
          "type": "address"
        }
      ],
      "stateMutability": "view",
      "type": "function",
      "constant": true
    },
    {
      "inputs": [],
      "name": "renounceOwnership",
      "outputs": [],
      "stateMutability": "nonpayable",
      "type": "function"
    },
    {
      "inputs": [
        {
          "internalType": "address",
          "name": "newOwner",
          "type": "address"
        }
      ],
      "name": "transferOwnership",
      "outputs": [],
      "stateMutability": "nonpayable",
      "type": "function"
    },
    {
      "inputs": [],
      "name": "usdEntryFee",
      "outputs": [
        {
          "internalType": "uint256",
          "name": "",
          "type": "uint256"
        }
      ],
      "stateMutability": "view",
      "type": "function",
      "constant": true
    },
    {
      "inputs": [],
      "name": "enter",
      "outputs": [],
      "stateMutability": "payable",
      "type": "function",
      "payable": true
    },
    {
      "inputs": [],
      "name": "getEntranceFee",
      "outputs": [
        {
          "internalType": "uint256",
          "name": "",
          "type": "uint256"
        }
      ],
      "stateMutability": "view",
      "type": "function",
      "constant": true
    },
    {
      "inputs": [],
      "name": "getLatestEthUsdPrice",
      "outputs": [
        {
          "internalType": "uint256",
          "name": "",
          "type": "uint256"
        }
      ],
      "stateMutability": "view",
      "type": "function",
      "constant": true
    },
    {
      "inputs": [],
      "name": "startLottery",
      "outputs": [],
      "stateMutability": "nonpayable",
      "type": "function"
    },
    {
      "inputs": [
        {
          "internalType": "uint256",
          "name": "userProvidedSeed",
          "type": "uint256"
        }
      ],
      "name": "endLottery",
      "outputs": [],
      "stateMutability": "nonpayable",
      "type": "function"
    },
    {
      "inputs": [],
      "name": "get_players",
      "outputs": [
        {
          "internalType": "address payable[]",
          "name": "",
          "type": "address[]"
        }
      ],
      "stateMutability": "view",
      "type": "function",
      "constant": true
    },
    {
      "inputs": [],
      "name": "get_pot",
      "outputs": [
        {
          "internalType": "uint256",
          "name": "",
          "type": "uint256"
        }
      ],
      "stateMutability": "view",
      "type": "function",
      "constant": true
    }
  ],
  "bytecode": "0x60c060405267016345785d8a000060065534801561001c57600080fd5b50604051611a53380380611a538339818101604052608081101561003f57600080fd5b810190808051906020019092919080519060200190929190805190602001909291908051906020019092919050505082828173ffffffffffffffffffffffffffffffffffffffff1660a08173ffffffffffffffffffffffffffffffffffffffff1660601b815250508073ffffffffffffffffffffffffffffffffffffffff1660808173ffffffffffffffffffffffffffffffffffffffff1660601b81525050505060006100f061021460201b60201c565b905080600160006101000a81548173ffffffffffffffffffffffffffffffffffffffff021916908373ffffffffffffffffffffffffffffffffffffffff1602179055508073ffffffffffffffffffffffffffffffffffffffff16600073ffffffffffffffffffffffffffffffffffffffff167f8be0079c531659141344cd1fd0a4f28419497f9722a3daafe3b4186f6b6457e060405160405180910390a35083600260006101000a81548173ffffffffffffffffffffffffffffffffffffffff021916908373ffffffffffffffffffffffffffffffffffffffff16021790555060016003819055506001600260146101000a81548160ff021916908360028111156101f757fe5b02179055508060088190555060326007819055505050505061021c565b600033905090565b60805160601c60a05160601c61180961024a60003980610b3052806113b352508061137752506118096000f3fe6080604052600436106101145760003560e01c806381447999116100a0578063e580f47b11610064578063e580f47b146103db578063e7e4552c14610406578063e97dcb6214610472578063f2fde38b1461047c578063f71d96cb146104cd57610114565b806381447999146102b057806388ab139a146102e95780638da5cb5b1461031457806394985ddd1461036b578063ddca3f43146103b057610114565b80633739e769116100e75780633739e769146101b15780634f8c70cf146101ec57806361728f391461024357806362c0553f1461026e578063715018a61461029957610114565b806309bc33a714610119578063160344e214610144578063302145991461015b5780633601318914610186575b600080fd5b34801561012557600080fd5b5061012e610548565b6040518082815260200191505060405180910390f35b34801561015057600080fd5b50610159610583565b005b34801561016757600080fd5b506101706106fb565b6040518082815260200191505060405180910390f35b34801561019257600080fd5b5061019b6107e4565b6040518082815260200191505060405180910390f35b3480156101bd57600080fd5b506101ea600480360360208110156101d457600080fd5b81019080803590602001909291905050506107ea565b005b3480156101f857600080fd5b50610201610947565b604051808273ffffffffffffffffffffffffffffffffffffffff1673ffffffffffffffffffffffffffffffffffffffff16815260200191505060405180910390f35b34801561024f57600080fd5b5061025861096d565b6040518082815260200191505060405180910390f35b34801561027a57600080fd5b50610283610973565b6040518082815260200191505060405180910390f35b3480156102a557600080fd5b506102ae61097b565b005b3480156102bc57600080fd5b506102c5610aeb565b604051808260028111156102d557fe5b60ff16815260200191505060405180910390f35b3480156102f557600080fd5b506102fe610afe565b6040518082815260200191505060405180910390f35b34801561032057600080fd5b50610329610b04565b604051808273ffffffffffffffffffffffffffffffffffffffff1673ffffffffffffffffffffffffffffffffffffffff16815260200191505060405180910390f35b34801561037757600080fd5b506103ae6004803603604081101561038e57600080fd5b810190808035906020019092919080359060200190929190505050610b2e565b005b3480156103bc57600080fd5b506103c5610bfd565b6040518082815260200191505060405180910390f35b3480156103e757600080fd5b506103f0610c03565b6040518082815260200191505060405180910390f35b34801561041257600080fd5b5061041b610c09565b6040518080602001828103825283818151815260200191508051906020019060200280838360005b8381101561045e578082015181840152602081019050610443565b505050509050019250505060405180910390f35b61047a610c97565b005b34801561048857600080fd5b506104cb6004803603602081101561049f57600080fd5b81019080803573ffffffffffffffffffffffffffffffffffffffff169060200190929190505050610dab565b005b3480156104d957600080fd5b50610506600480360360208110156104f057600080fd5b8101908080359060200190929190505050610fa0565b604051808273ffffffffffffffffffffffffffffffffffffffff1673ffffffffffffffffffffffffffffffffffffffff16815260200191505060405180910390f35b600080670de0b6b3a7640000905060006105606106fb565b905060006305f5e1006007540282848161057657fe5b0402905080935050505090565b61058b610fdc565b73ffffffffffffffffffffffffffffffffffffffff166105a9610b04565b73ffffffffffffffffffffffffffffffffffffffff1614610632576040517f08c379a00000000000000000000000000000000000000000000000000000000081526004018080602001828103825260208152602001807f4f776e61626c653a2063616c6c6572206973206e6f7420746865206f776e657281525060200191505060405180910390fd5b6001600281111561063f57fe5b600260149054906101000a900460ff16600281111561065a57fe5b146106cd576040517f08c379a000000000000000000000000000000000000000000000000000000000815260040180806020018281038252601d8152602001807f63616e27742073746172742061206e6577206c6f74746572792079657400000081525060200191505060405180910390fd5b6000600260146101000a81548160ff021916908360028111156106ec57fe5b02179055506000600981905550565b600080600080600080600260009054906101000a900473ffffffffffffffffffffffffffffffffffffffff1673ffffffffffffffffffffffffffffffffffffffff1663feaf968c6040518163ffffffff1660e01b815260040160a06040518083038186803b15801561076c57600080fd5b505afa158015610780573d6000803e3d6000fd5b505050506040513d60a081101561079657600080fd5b81019080805190602001909291908051906020019092919080519060200190929190805190602001909291908051906020019092919050505094509450945094509450839550505050505090565b60095481565b6107f2610fdc565b73ffffffffffffffffffffffffffffffffffffffff16610810610b04565b73ffffffffffffffffffffffffffffffffffffffff1614610899576040517f08c379a00000000000000000000000000000000000000000000000000000000081526004018080602001828103825260208152602001807f4f776e61626c653a2063616c6c6572206973206e6f7420746865206f776e657281525060200191505060405180910390fd5b600060028111156108a657fe5b600260149054906101000a900460ff1660028111156108c157fe5b14610917576040517f08c379a00000000000000000000000000000000000000000000000000000000081526004018080602001828103825260278152602001806117ad6027913960400191505060405180910390fd5b60028060146101000a81548160ff0219169083600281111561093557fe5b021790555061094381610fe4565b5050565b600560009054906101000a900473ffffffffffffffffffffffffffffffffffffffff1681565b60085481565b600047905090565b610983610fdc565b73ffffffffffffffffffffffffffffffffffffffff166109a1610b04565b73ffffffffffffffffffffffffffffffffffffffff1614610a2a576040517f08c379a00000000000000000000000000000000000000000000000000000000081526004018080602001828103825260208152602001807f4f776e61626c653a2063616c6c6572206973206e6f7420746865206f776e657281525060200191505060405180910390fd5b600073ffffffffffffffffffffffffffffffffffffffff16600160009054906101000a900473ffffffffffffffffffffffffffffffffffffffff1673ffffffffffffffffffffffffffffffffffffffff167f8be0079c531659141344cd1fd0a4f28419497f9722a3daafe3b4186f6b6457e060405160405180910390a36000600160006101000a81548173ffffffffffffffffffffffffffffffffffffffff021916908373ffffffffffffffffffffffffffffffffffffffff160217905550565b600260149054906101000a900460ff1681565b60075481565b6000600160009054906101000a900473ffffffffffffffffffffffffffffffffffffffff16905090565b7f000000000000000000000000000000000000000000000000000000000000000073ffffffffffffffffffffffffffffffffffffffff163373ffffffffffffffffffffffffffffffffffffffff1614610bef576040517f08c379a000000000000000000000000000000000000000000000000000000000815260040180806020018281038252601f8152602001807f4f6e6c7920565246436f6f7264696e61746f722063616e2066756c66696c6c0081525060200191505060405180910390fd5b610bf982826110d0565b5050565b60065481565b60035481565b60606004805480602002602001604051908101604052809291908181526020018280548015610c8d57602002820191906000526020600020905b8160009054906101000a900473ffffffffffffffffffffffffffffffffffffffff1673ffffffffffffffffffffffffffffffffffffffff1681526020019060010190808311610c43575b5050505050905090565b610c9f610548565b341015610d14576040517f08c379a00000000000000000000000000000000000000000000000000000000081526004018080602001828103825260188152602001807f4e6f7420656e6f7567682045544820746f20656e74657221000000000000000081525060200191505060405180910390fd5b60006002811115610d2157fe5b600260149054906101000a900460ff166002811115610d3c57fe5b14610d4657600080fd5b6004339080600181540180825580915050600190039060005260206000200160009091909190916101000a81548173ffffffffffffffffffffffffffffffffffffffff021916908373ffffffffffffffffffffffffffffffffffffffff160217905550565b610db3610fdc565b73ffffffffffffffffffffffffffffffffffffffff16610dd1610b04565b73ffffffffffffffffffffffffffffffffffffffff1614610e5a576040517f08c379a00000000000000000000000000000000000000000000000000000000081526004018080602001828103825260208152602001807f4f776e61626c653a2063616c6c6572206973206e6f7420746865206f776e657281525060200191505060405180910390fd5b600073ffffffffffffffffffffffffffffffffffffffff168173ffffffffffffffffffffffffffffffffffffffff161415610ee0576040517f08c379a00000000000000000000000000000000000000000000000000000000081526004018080602001828103825260268152602001806117876026913960400191505060405180910390fd5b8073ffffffffffffffffffffffffffffffffffffffff16600160009054906101000a900473ffffffffffffffffffffffffffffffffffffffff1673ffffffffffffffffffffffffffffffffffffffff167f8be0079c531659141344cd1fd0a4f28419497f9722a3daafe3b4186f6b6457e060405160405180910390a380600160006101000a81548173ffffffffffffffffffffffffffffffffffffffff021916908373ffffffffffffffffffffffffffffffffffffffff16021790555050565b60048181548110610fad57fe5b906000526020600020016000915054906101000a900473ffffffffffffffffffffffffffffffffffffffff1681565b600033905090565b6000600280811115610ff257fe5b600260149054906101000a900460ff16600281111561100d57fe5b14611080576040517f08c379a000000000000000000000000000000000000000000000000000000000815260040180806020018281038252601d8152602001807f596f75206172656e27742061742074686174207374616765207965742100000081525060200191505060405180910390fd5b600061109160085460065485611373565b90507fe5f5b44d72d4143c278eb745c4acc0695c4a5bc616be5beecf46abe29661780e816040518082815260200191505060405180910390a150919050565b6002808111156110dc57fe5b600260149054906101000a900460ff1660028111156110f757fe5b1461116a576040517f08c379a000000000000000000000000000000000000000000000000000000000815260040180806020018281038252601d8152602001807f596f75206172656e27742061742074686174207374616765207965742100000081525060200191505060405180910390fd5b600081116111e0576040517f08c379a00000000000000000000000000000000000000000000000000000000081526004018080602001828103825260108152602001807f72616e646f6d2d6e6f742d666f756e640000000000000000000000000000000081525060200191505060405180910390fd5b600060048054905082816111f057fe5b0690506004818154811061120057fe5b9060005260206000200160009054906101000a900473ffffffffffffffffffffffffffffffffffffffff16600560006101000a81548173ffffffffffffffffffffffffffffffffffffffff021916908373ffffffffffffffffffffffffffffffffffffffff1602179055506004818154811061127857fe5b9060005260206000200160009054906101000a900473ffffffffffffffffffffffffffffffffffffffff1673ffffffffffffffffffffffffffffffffffffffff166108fc479081150290604051600060405180830381858888f193505050501580156112e8573d6000803e3d6000fd5b50600067ffffffffffffffff8111801561130157600080fd5b506040519080825280602002602001820160405280156113305781602001602082028036833780820191505090505b50600490805190602001906113469291906116b9565b506001600260146101000a81548160ff0219169083600281111561136657fe5b0217905550819150505050565b60007f000000000000000000000000000000000000000000000000000000000000000073ffffffffffffffffffffffffffffffffffffffff16634000aea07f000000000000000000000000000000000000000000000000000000000000000085878660405160200180838152602001828152602001925050506040516020818303038152906040526040518463ffffffff1660e01b8152600401808473ffffffffffffffffffffffffffffffffffffffff1673ffffffffffffffffffffffffffffffffffffffff16815260200183815260200180602001828103825283818151815260200191508051906020019080838360005b83811015611482578082015181840152602081019050611467565b50505050905090810190601f1680156114af5780820380516001836020036101000a031916815260200191505b50945050505050602060405180830381600087803b1580156114d057600080fd5b505af11580156114e4573d6000803e3d6000fd5b505050506040513d60208110156114fa57600080fd5b810190808051906020019092919050505050600061152c8584306000808a81526020019081526020016000205461157e565b90506115546001600080888152602001908152602001600020546115f890919063ffffffff16565b600080878152602001908152602001600020819055506115748582611680565b9150509392505050565b600084848484604051602001808581526020018481526020018373ffffffffffffffffffffffffffffffffffffffff1673ffffffffffffffffffffffffffffffffffffffff1681526020018281526020019450505050506040516020818303038152906040528051906020012060001c9050949350505050565b600080828401905083811015611676576040517f08c379a000000000000000000000000000000000000000000000000000000000815260040180806020018281038252601b8152602001807f536166654d6174683a206164646974696f6e206f766572666c6f77000000000081525060200191505060405180910390fd5b8091505092915050565b60008282604051602001808381526020018281526020019250505060405160208183030381529060405280519060200120905092915050565b828054828255906000526020600020908101928215611732579160200282015b828111156117315782518260006101000a81548173ffffffffffffffffffffffffffffffffffffffff021916908373ffffffffffffffffffffffffffffffffffffffff160217905550916020019190600101906116d9565b5b50905061173f9190611743565b5090565b61178391905b8082111561177f57600081816101000a81549073ffffffffffffffffffffffffffffffffffffffff021916905550600101611749565b5090565b9056fe4f776e61626c653a206e6577206f776e657220697320746865207a65726f206164647265737343616e277420656e642061206c6f74746572792074686174206861736e74207374617274656421a26469706673582212208974f8a3473f160da9bdd7e474750bf492f43572315e64a01a08afabe90b08f164736f6c63430006060033",
  "immutableReferences": {
    "466": [
      {
        "length": 32,
        "start": 4983
      }
    ],
    "468": [
      {
        "length": 32,
        "start": 2864
      },
      {
        "length": 32,
        "start": 5043
      }
    ]
  },
  "source": "pragma solidity ^0.6.6;\n\nimport \"@chainlink/contracts/src/v0.6/VRFConsumerBase.sol\";\nimport \"@chainlink/contracts/src/v0.6/vendor/SafeMathChainlink.sol\";\nimport \"@chainlink/contracts/src/v0.6/interfaces/AggregatorV3Interface.sol\";\nimport \"@openzeppelin/contracts/access/Ownable.sol\";\n\ncontract Lottery is VRFConsumerBase, Ownable {\n    using SafeMathChainlink for uint256;\n    AggregatorV3Interface internal ethUsdPriceFeed;\n    enum LOTTERY_STATE { OPEN, CLOSED, CALCULATING_WINNER }\n    LOTTERY_STATE public lottery_state;\n    uint256 public lotteryId;\n    address payable[] public players;\n    address public recentWinner;\n    // 0.1 LINK\n    uint256 public fee = 100000000000000000;\n    uint256 public usdEntryFee;\n    bytes32 public keyHash;\n    uint256 public randomness;\n    event RequestedRandomness(bytes32 requestId);\n\n    constructor(address ethUsdPriceFeedAddress, address _vrfCoordinator, address _link, bytes32 _keyHash) \n        VRFConsumerBase(\n            _vrfCoordinator, // VRF Coordinator\n            _link  // LINK Token\n        ) public\n    {   \n        ethUsdPriceFeed = AggregatorV3Interface(ethUsdPriceFeedAddress);\n        lotteryId = 1;\n        lottery_state = LOTTERY_STATE.CLOSED;\n        keyHash = _keyHash;\n        usdEntryFee = 50;\n    }\n\n    function enter() public payable {\n        require(msg.value >= getEntranceFee(), \"Not enough ETH to enter!\");\n        require(lottery_state == LOTTERY_STATE.OPEN);\n        players.push(msg.sender);\n    } \n\n    function getEntranceFee() public view returns(uint256){\n        uint256 precision = 1 * 10 ** 18; \n        uint256 price = getLatestEthUsdPrice(); \n        uint256 costToEnter = (precision / price) * (usdEntryFee * 100000000);\n        return costToEnter;\n    }\n\n    function getLatestEthUsdPrice() public view returns (uint256) {\n        (\n            uint80 roundID, \n            int price,\n            uint startedAt,\n            uint timeStamp,\n            uint80 answeredInRound\n        ) = ethUsdPriceFeed.latestRoundData();\n        return uint256(price);\n    }\n    \n    function startLottery() public onlyOwner {\n        require(lottery_state == LOTTERY_STATE.CLOSED, \"can't start a new lottery yet\");\n        lottery_state = LOTTERY_STATE.OPEN;\n        randomness = 0;\n    }\n\n    function endLottery(uint256 userProvidedSeed) public onlyOwner {\n      require(lottery_state == LOTTERY_STATE.OPEN, \"Can't end a lottery that hasnt started!\");\n      lottery_state = LOTTERY_STATE.CALCULATING_WINNER;\n      pickWinner(userProvidedSeed);\n    }\n\n\n    function pickWinner(uint256 userProvidedSeed) private returns (bytes32){\n        require(lottery_state == LOTTERY_STATE.CALCULATING_WINNER, \"You aren't at that stage yet!\");\n        bytes32 requestId = requestRandomness(keyHash, fee, userProvidedSeed);\n        emit RequestedRandomness(requestId);\n    }\n    \n    function fulfillRandomness(bytes32 requestId, uint256 randomness) internal override {\n        require(lottery_state == LOTTERY_STATE.CALCULATING_WINNER, \"You aren't at that stage yet!\");\n        require(randomness > 0, \"random-not-found\");\n        uint256 index = randomness % players.length;\n        recentWinner = players[index];\n        players[index].transfer(address(this).balance);\n        players = new address payable[](0);\n        lottery_state = LOTTERY_STATE.CLOSED;\n        randomness = randomness;\n    }\n\n    function get_players() public view returns (address payable[] memory) {\n        return players;\n    }\n    \n    function get_pot() public view returns(uint256){\n        return address(this).balance;\n    }\n}\n",
  "sourcePath": "/Users/patrick/code/chainlink-truffle-lottery/contracts/Lottery.sol",
  "compiler": {
    "name": "solc",
    "version": "0.6.6+commit.6c089d02.Emscripten.clang"
  },
  "schemaVersion": "3.3.4",
  "updatedAt": "2021-03-24T00:31:40.730Z",
  "networkType": "ethereum",
  "devdoc": {
    "methods": {
      "owner()": {
        "details": "Returns the address of the current owner."
      },
      "renounceOwnership()": {
        "details": "Leaves the contract without owner. It will not be possible to call `onlyOwner` functions anymore. Can only be called by the current owner.     * NOTE: Renouncing ownership will leave the contract without an owner, thereby removing any functionality that is only available to the owner."
      },
      "transferOwnership(address)": {
        "details": "Transfers ownership of the contract to a new account (`newOwner`). Can only be called by the current owner."
      }
    }
  },
  "userdoc": {
    "methods": {}
  }
}